:100000000C9434000C9449000C9449000C94490061
:100010000C9449000C9449000C9449000C9449003C
:100020000C9449000C9449000C9449000C9449002C
:100030000C9449000C9449000C9449000C9449001C
:100040000C9449000C9449000C945A000C944900FB
:100050000C9449000C9449000C9449000C944900FC
:100060000C9449000C94490011241FBECFEFD8E036
:10007000DEBFCDBF11E0A0E0B1E0E6E5F1E002C0F7
:1000800005900D92AE31B107D9F70E949D000C94F6
:10009000A9000C9400009093C5008093C40088E9E7
:1000A0008093C10008959091C00095FFFCCF80938C
:1000B000C60008951F920F920FB60F9211242F932E
:1000C0003F934F935F936F937F938F939F93AF93E0
:1000D000BF93EF93FF938091C6000E945300FF915E
:1000E000EF91BF91AF919F918F917F916F915F91B0
:1000F0004F913F912F910F900FBE0F901F90189529
:10010000CF93DF9300D00F92CDB7DEB789839A8368
:100110001B82E981FA818B81E80FF11D80818111B9
:1001200006C00F900F900F90DF91CF9108959B81A3
:100130009F5F9B830E945300ECCF88E090E00E9479
:100140004B0080E091E00E9480008FB780688FBFF5
:06015000FFCFF894FFCF81
:10015600456E74657220796F7572206C6F67696E73
:0E0166003A0D0A09757365726E616D653A0097
:040000030000013ABE
:00000001FF
